:100000000C942A000C94DA000C9418010C9447000C
:100010000C9447000C9447000C9447000C94570133
:100020000C9447000C9447000C9447000C94470034
:100030000C9447000C9447000C9447000C94470024
:100040000C9447000C9447000C9447000C94470014
:100050000C94470011241FBECFE5D8E0DEBFCDBF12
:1000600010E0A0E6B0E0E0E8FEE002C005900D92EE
:10007000A637B107D9F720E0A6E7B0E001C01D928E
:10008000A63BB207E1F70E9493000C943E070C9444
:1000900000008BBB84E085BB000085B38B7F85BBF4
:1000A00081E28A95F1F7000008958FEF8ABB84BB47
:1000B00088E30E9449008EE00E94490081E00E948E
:1000C000490083EF91E00197F1F700C0000086E05E
:1000D0000E94490008958BBB85E085BB000085B375
:1000E0008B7F85BB81E28A95F1F7000008950F931D
:1000F0001F93CF93DF938C01C0E0D0E003C00E9438
:100100006B002196F801EC0FFD1F80818111F7CF64
:10011000DF91CF911F910F91089587B38D6087BBB9
:1001200089E683BF08950E9455000E948D0089E0F2
:100130008EBD84E190E09BBD8ABD80E189BF78944B
:1001400087B38D7F87BB88B3826088BB85B78A60A1
:1001500085BF8BB7806C8BBFFFCF8F3F910519F0A8
:1001600014F08FEF90E081302FEF920714F481E0CC
:100170009FEF8CBF1816190654F488B3816088BBB2
:1001800088B3846088BB88B3877F88BB0895992330
:1001900054F488B3816088BB88B38B7F88BB88B3F5
:1001A000886088BB089588B38B7F88BB88B3877FBE
:1001B00088BB08951F920F920FB60F9211242F93B0
:1001C0003F934F935F936F937F938F939F93AF93DF
:1001D000BF93EF93FF9380917600909177004497BF
:1001E00090937700809376008091760090917700CD
:1001F00081309F4F34F481E09FEF9093770080939C
:10020000760080917600909177000E94AD00FF917A
:10021000EF91BF91AF919F918F917F916F915F917E
:100220004F913F912F910F900FBE0F901F901895F7
:100230001F920F920FB60F9211242F933F934F935B
:100240005F936F937F938F939F93AF93BF93EF933E
:10025000FF93809176009091770044969093770079
:100260008093760080917600909177008F3F910582
:1002700039F034F08FEF90E0909377008093760020
:1002800080917600909177000E94AD00FF91EF91F0
:10029000BF91AF919F918F917F916F915F914F919E
:1002A0003F912F910F900FBE0F901F9018951F92A6
:1002B0000F920FB60F9211244F925F926F927F921E
:1002C0008F929F92AF92BF92CF92DF92EF92FF9266
:1002D0002F933F934F935F936F937F938F939F934E
:1002E000AF93BF93EF93FF9380918200909183002F
:1002F0000196909383008093820080918200909178
:100300008300449708F4A3C08091800090918100FD
:100310000196909381008093800010928300109248
:100320008200609180007091810080E090E00E94E6
:1003300059032BED3FE049EC50E40E94E7032FE81E
:1003400032EC45E75CE30E94B102C62ED72EE82EC0
:10035000F92E9F938F937F936F9384E690E09F9302
:100360008F9384E890E09F938F930E94540481E0E0
:100370000E94490084E890E00E947700609160004C
:100380007091610080916200909163002C2D3D2D51
:100390004E2D5F2D0E9444026B017C0120917C0058
:1003A00030917D0040917E0050917F000E94450277
:1003B00060937C0070937D0080937E0090937F001B
:1003C000209178003091790040917A0050917B0023
:1003D000C701B6010E9444022B013C0160917C00E0
:1003E00070917D0080917E0090917F002DEC3CEC1F
:1003F0004CEC5DE30E94E7039B01AC01C701B60131
:100400000E9445024B015C012DEC3CEC4CE45DE3A9
:10041000C301B2010E94E7039B01AC01C501B40115
:100420000E9445020E942303CB010E94AD00C092AE
:100430007800D0927900E0927A00F0927B008DB73C
:100440009EB708960FB6F8949EBF0FBE8DBFFF9162
:10045000EF91BF91AF919F918F917F916F915F913C
:100460004F913F912F91FF90EF90DF90CF90BF90F1
:10047000AF909F908F907F906F905F904F900F9074
:100480000FBE0F901F9018955058BB27AA270E94A7
:100490005C020C94AD030E949F0338F00E94A603F7
:1004A00020F039F49F3F19F426F40C949C030EF4C9
:1004B000E095E7FB0C949603E92F0E94BE0358F3E6
:1004C000BA17620773078407950720F079F4A6F539
:1004D0000C94E0030EF4E0950B2EBA2FA02D0B0127
:1004E000B90190010C01CA01A0011124FF27591B79
:1004F00099F0593F50F4503E68F11A16F040A22F7F
:10050000232F342F4427585FF3CF469537952795EF
:10051000A795F0405395C9F77EF41F16BA0B620BEE
:10052000730B840BBAF09150A1F0FF0FBB1F661F35
:10053000771F881FC2F70EC0BA0F621F731F841F78
:1005400048F4879577956795B795F7959E3F08F09E
:10055000B0CF9395880F08F09927EE0F9795879560
:1005600008950E94C5020C94AD030E94A60358F0A2
:100570000E949F0340F029F45F3F29F00C949603FA
:1005800051110C94E1030C949C030E94BE0368F388
:100590009923B1F3552391F3951B550BBB27AA273C
:1005A00062177307840738F09F5F5F4F220F331F76
:1005B000441FAA1FA9F335D00E2E3AF0E0E832D03E
:1005C00091505040E695001CCAF72BD0FE2F29D041
:1005D000660F771F881FBB1F261737074807AB0713
:1005E000B0E809F0BB0B802DBF01FF2793585F4F88
:1005F0003AF09E3F510578F00C9496030C94E10379
:100600005F3FE4F3983ED4F3869577956795B79569
:10061000F7959F5FC9F7880F911D9695879597F974
:100620000895E1E0660F771F881FBB1F62177307ED
:100630008407BA0720F0621B730B840BBA0BEE1F02
:1006400088F7E09508950E942A036894B1110C94EC
:10065000E10308950E94C60388F09F5798F0B92FD0
:100660009927B751B0F0E1F0660F771F881F991FE7
:100670001AF0BA95C9F714C0B13091F00E94E003A6
:10068000B1E008950C94E003672F782F8827B85FB6
:1006900039F0B93FCCF3869577956795B395D9F73F
:1006A0003EF490958095709561957F4F8F4F9F4F49
:1006B0000895E89409C097FB3EF490958095709555
:1006C00061957F4F8F4F9F4F9923A9F0F92F96E99E
:1006D000BB279395F695879577956795B795F11113
:1006E000F8CFFAF4BB0F11F460FF1BC06F5F7F4FB0
:1006F0008F4F9F4F16C0882311F096E911C07723C2
:1007000021F09EE8872F762F05C0662371F096E8CA
:10071000862F70E060E02AF09A95660F771F881F99
:10072000DAF7880F9695879597F9089597F99F6757
:1007300080E870E060E008959FEF80EC0895002469
:100740000A941616170618060906089500240A9436
:1007500012161306140605060895092E0394000CBC
:1007600011F4882352F0BB0F40F4BF2B11F460FF4B
:1007700004C06F5F7F4F8F4F9F4F089557FD905874
:10078000440F551F59F05F3F71F04795880F97FB55
:10079000991F61F09F3F79F087950895121613060F
:1007A0001406551FF2CF4695F1DF08C0161617063E
:1007B0001806991FF1CF8695710561050894089573
:1007C000E894BB2766277727CB0197F908950E9405
:1007D000FA030C94AD030E949F0338F00E94A60315
:1007E00020F0952311F00C9496030C949C03112493
:1007F0000C94E1030E94BE0370F3959FC1F3950F23
:1008000050E0551F629FF001729FBB27F00DB11D94
:10081000639FAA27F00DB11DAA1F649F6627B00D24
:10082000A11D661F829F2227B00DA11D621F739F0D
:10083000B00DA11D621F839FA00D611D221F749F1B
:100840003327A00D611D231F849F600D211D822F62
:10085000762F6A2F11249F5750409AF0F1F0882389
:100860004AF0EE0FFF1FBB1F661F771F881F9150B6
:100870005040A9F79E3F510580F00C9496030C94CC
:10088000E1035F3FE4F3983ED4F38695779567954F
:10089000B795F795E7959F5FC1F7FE2B880F911DE0
:1008A0009695879597F90895AEE0B0E0EAE5F4E013
:1008B0000C9415070D891E8986E08C831A830983A1
:1008C0008FEF9FE79E838D83AE01475E5F4F6F89F9
:1008D000788DCE0101960E947604EF81F885E00FB5
:1008E000F11F10822E96E4E00C943107ABE0B0E0EB
:1008F000ECE7F4E00C9407076C017B018A01FC0132
:1009000017821682838181FFCCC1CE0101963C0102
:10091000F6019381F70193FD859193FF81917F010A
:10092000882309F4BAC1853239F493FD859193FF88
:1009300081917F01853229F4B60190E00E946D0615
:10094000E7CF912C212C312CFFE1F315D8F08B321D
:1009500079F038F4803279F08332A1F4232D2061CC
:100960001DC08D3261F0803369F4232D216016C0E3
:10097000832D8260382EE32DE4603E2E2AC0F32DB5
:10098000F8601DC037FC2DC020ED280F2A3040F044
:100990008E32B9F436FC81C1232D2064322E19C069
:1009A00036FE06C08AE0989E200D1124922E11C0BA
:1009B000EAE02E9E200D1124222EF32DF0623F2E10
:1009C00008C08C3621F4832D8068382E02C088360A
:1009D00041F4F70193FD859193FF81917F0181118E
:1009E000B3CF982F9F7D9554933028F40C5F1F4F01
:1009F0009FE399830DC0833631F0833771F08335DF
:100A000009F059C021C0F801808189830E5F1F4F12
:100A100088248394912C530113C02801F2E04F0ED7
:100A2000511CF801A080B18036FE03C0692D70E032
:100A300002C06FEF7FEFC5010E9462064C01820188
:100A4000F32DFF773F2E16C0280122E0420E511CE5
:100A5000F801A080B18036FE03C0692D70E002C0AD
:100A60006FEF7FEFC5010E9457064C01F32DF06830
:100A70003F2E820133FC1BC0822D90E08816990620
:100A8000B0F4B60180E290E00E946D062A94F4CFA3
:100A9000F50137FC859137FE81915F01B60190E049
:100AA0000E946D0621102A9421E0821A9108811477
:100AB000910471F7E8C0843611F0893641F5F801E8
:100AC00037FE07C060817181828193810C5F1F4F67
:100AD00008C060817181072E000C880B990B0E5F96
:100AE0001F4FF32DFF763F2E97FF09C090958095FD
:100AF000709561957F4F8F4F9F4FF0683F2E2AE092
:100B000030E0A3010E94A906882E861845C08537CB
:100B100031F4232D2F7EB22E2AE030E025C0932D14
:100B2000997FB92E8F36C1F018F4883579F0B5C0A9
:100B3000803719F0883721F0B0C0E92FE061BE2E70
:100B4000B4FE0DC0FB2DF460BF2E09C034FE0AC0F8
:100B5000292F2660B22E06C028E030E005C020E133
:100B600030E002C020E132E0F801B7FE07C060814A
:100B70007181828193810C5F1F4F06C060817181FA
:100B800080E090E00E5F1F4FA3010E94A906882E0F
:100B90008618FB2DFF773F2E36FE0DC0232D2E7FAE
:100BA000A22E891458F434FE0BC032FC09C0832DE8
:100BB0008E7EA82E05C0B82CA32C03C0B82C01C073
:100BC000B92CA4FE0FC0FE01E80DF11D8081803319
:100BD00021F49A2D997EA92E09C0A2FE06C0B394D5
:100BE000B39404C08A2D867809F0B394A3FC11C095
:100BF000A0FE06C0B21488F4280C922C9B180EC0DC
:100C0000B21460F4B60180E290E00E946D06B394E5
:100C1000F7CFB21418F42B1802C0982C212CA4FE84
:100C200010C0B60180E390E00E946D06A2FE17C0DE
:100C3000A1FC03C088E790E002C088E590E0B6011F
:100C40000CC08A2D867859F0A1FE02C08BE201C04B
:100C500080E2A7FC8DE2B60190E00E946D06891447
:100C600038F4B60180E390E00E946D069A94F7CFC5
:100C70008A94F301E80DF11D8081B60190E00E9495
:100C80006D068110F5CF222009F442CEB60180E234
:100C900090E00E946D062A94F6CFF6018681978136
:100CA00002C08FEF9FEF2B96E2E10C942307FC012B
:100CB0000590615070400110D8F7809590958E0F87
:100CC0009F1F0895FC016150704001900110D8F7FA
:100CD000809590958E0F9F1F08950F931F93CF932C
:100CE000DF93FB01238121FD03C08FEF9FEF2CC019
:100CF00022FF16C046815781248135814217530750
:100D000044F4A081B1819D012F5F3F4F3183208347
:100D10008C93268137812F5F3F4F3783268314C002
:100D20008B01EC01FB010084F185E02D0995892BF5
:100D3000E1F6D80116968D919C911797019617961A
:100D40009C938E931697CE01DF91CF911F910F91B7
:100D50000895FA01AA27283051F1203181F1E89451
:100D60006F936E7F6E5F7F4F8F4F9F4FAF4FB1E09E
:100D70003ED0B4E03CD0670F781F891F9A1FA11D99
:100D8000680F791F8A1F911DA11D6A0F711D811D9A
:100D9000911DA11D20D009F468943F912AE0269F5F
:100DA00011243019305D3193DEF6CF010895462FBE
:100DB0004770405D4193B3E00FD0C9F7F6CF462F9F
:100DC0004F70405D4A3318F0495D31FD4052419308
:100DD00002D0A9F7EACFB4E0A695979587957795C5
:100DE0006795BA95C9F700976105710508959B014C
:100DF000AC010A2E06945795479537952795BA95D5
:100E0000C9F7620F731F841F951FA01D08952F92AD
:100E10003F924F925F926F927F928F929F92AF928A
:100E2000BF92CF92DF92EF92FF920F931F93CF93D7
:100E3000DF93CDB7DEB7CA1BDB0B0FB6F894DEBF6E
:100E40000FBECDBF09942A88398848885F846E8494
:100E50007D848C849B84AA84B984C884DF80EE80DE
:100E6000FD800C811B81AA81B981CE0FD11D0FB6E7
:100E7000F894DEBF0FBECDBFED010895F894FFCF0B
:100E80000000484253706565643A20252E32662082
:060E90007261642F730083
:00000001FF
